:1000000014C1000040C100003EC100003CC100001E
:100010003AC1000038C1000036C1000034C1000000
:1000200032C1000030C100002EC100002CC1000010
:100030002AC1000028C1000026C1000024C1000020
:1000400022C1000020C100001EC100001CC1000030
:100050001AC1000018C1000016C1000030C4000021
:1000600012C10000F6C30000CBC300000CC10000A9
:100070000AC1000008C1000006C1000004C1000060
:1000800002C1000000C10000FEC00000FCC0000072
:10009000FAC00000F8C00000F6C00000F4C0000084
:1000A000F2C00000F0C00000EEC00000ECC0000094
:1000B000EAC00000E8C00000E6C00000E4C00000A4
:1000C000E2C00000E0C00000DEC00000DCC00000B4
:1000D000DAC00000D8C00000D6C00000D4C00000C4
:1000E000D2C00000BC02BF02AE02B202B602F602EB
:1000F000C302C702CD02D102D502DB02DF02E30256
:10010000F602E902ED02F1020000210024002700BE
:100110002A002D0030003300010100000401070116
:100120000A0100002200250028002B002E003100CB
:10013000340002010000050108010B0100000A0B58
:1001400002090C0D0E080703040100000000000066
:10015000000000000000000000000000000000009F
:10016000000000000000000012111000000000005C
:10017000000000000000000000000000000000007F
:100180000000000020002300260029002C002F0082
:100190003200000100000301060109010505050503
:1001A000070508080808020202020A0A08080404EF
:1001B000040401010101010101010303030303031D
:1001C0000303040707070C0C0C0C0C0C0C0C0202AC
:1001D000020206060606060606060B0B0B0B0B0BA9
:1001E0000B0B010210202008081020401020408036
:1001F00002010201080402010102040810204080EB
:100200008040201008040201800402018040201078
:1002100008040201080402010102040810204080C1
:100220000102040810204080EE0411241FBECFEF0D
:10023000D1E2DEBFCDBF00E00CBF12E0A0E0B2E033
:10024000EEEDF1E100E00BBF02C007900D92A2338A
:10025000B107D9F723E0A2E3B2E001C01D92A832B2
:10026000B207E1F711E0C5E1D1E000E005C0219758
:100270000109802FFE01D1D5C431D10780E00807E4
:10028000B1F7EBD3AAC7BCCEE3E4F2E0A089B18911
:1002900082E08C93A485B5851C92A685B7858FECEA
:1002A0008C93108EA489B58986E08C93A289B3893A
:1002B0008C9180618C93A289B3898C9188608C9396
:1002C000A289B3898C9180688C930288F389E02D90
:1002D00080818F7D80830895CF92DF92EF92FF928D
:1002E0000F931F93CF93DF936C017A018B01C0E0D2
:1002F000D0E0CE15DF0589F0D8016D918D01D601D2
:10030000ED91FC910190F081E02DC6011995892BAA
:1003100011F47E0102C02196ECCFC701DF91CF918D
:100320001F910F91FF90EF90DF90CF900895FC0107
:10033000918D828D981761F0828DDF01A80FB11D1C
:100340005D968C91928D9F5F9F73928F90E0089540
:100350008FEF9FEF0895FC01918D828D981731F0FA
:10036000828DE80FF11D858D90E008958FEF9FEF4E
:100370000895FC01918D228D892F90E0805C9F4F24
:10038000821B91098F739927089583E492E0F1DF2E
:1003900021E0892B09F420E0822F0895FC01848D4F
:1003A000DF01A80FB11DA35ABF4F2C91848D90E09F
:1003B00001968F739927848FA689B7892C93A0897A
:1003C000B1898C9180648C93938D848D981306C031
:1003D0000288F389E02D80818F7D80830895EF92DC
:1003E000FF920F931F93CF93DF93EC0181E0888FEF
:1003F0009B8D8C8D981305C0E889F989808185FDD6
:1004000023C0F62E0B8D10E00F5F1F4F0F731127C7
:10041000E02E8C8DE8120BC00FB607FCFACFE889EE
:10042000F989808185FFF5CFCE01B8DFF2CF8B8DC2
:10043000FE01E80FF11DE35AFF4FF0820B8FEA89AE
:10044000FB898081806207C0EE89FF896083E8892B
:10045000F98980818064808381E090E0DF91CF9191
:100460001F910F91FF90EF900895CF93DF93EC01D0
:10047000888D8823C1F0EA89FB89808185FD05C0CC
:10048000A889B9898C9186FD0EC00FB607FCF5CFFF
:10049000808185FFF2CFA889B9898C9185FFEDCF46
:1004A000CE017CDFE8CFDF91CF91089580E090E02E
:1004B000892B19F06ADF811125C080E090E0892B3B
:1004C00041F080E090E0892B21F00E940000811132
:1004D0001CC080E090E0892B41F080E090E0892B07
:1004E00021F00E940000811113C080E090E0892B70
:1004F000A1F080E090E0892B81F00E940000811142
:100500000AC008950E940000D8CF0E940000E1CFE9
:100510000E940000EACF0C9400000895362F90E06E
:10052000FC01E45CFE4F4491FC01EE51FE4F24912E
:10053000FC01E456FE4F9491992309F46AC04423C8
:1005400009F454C050E0FA013197E231F10508F0A6
:100550004DC08827EE58FF4F8F4F5FC480918000B9
:100560008F7707C0809180008F7D03C080918000CD
:10057000877F809380003AC084B58F7702C084B5AE
:100580008F7D84BD33C08091B0008F7703C0809190
:10059000B0008F7D8093B00029C0809190008F774C
:1005A00007C0809190008F7D03C080919000877F6D
:1005B000809390001BC08091A0008F7707C080912E
:1005C000A0008F7D03C08091A000877F8093A00052
:1005D0000DC0809120018F7707C0809120018F7D11
:1005E00003C080912001877F80932001E92FF0E0F4
:1005F000EE0FFF1FEE5DFE4FA591B4918FB7F894FB
:10060000EC91311103C020952E2301C02E2B2C9389
:100610008FBF0895CF93DF9390E0FC01EE51FE4F22
:100620002491FC01E456FE4F8491882361F190E00F
:10063000880F991FFC01E85FFE4FC591D491FC0122
:10064000EE5DFE4FA591B491611109C09FB7F8947A
:100650008881209582238883EC912E230BC0623001
:1006600061F49FB7F8943881822F80958323888323
:10067000EC912E2B2C939FBF06C08FB7F894E88186
:100680002E2B28838FBFDF91CF9108953FB7F89429
:100690008091330290913402A0913502B0913602DC
:1006A00026B5A89B05C02F3F19F00196A11DB11DCD
:1006B0003FBFBA2FA92F982F8827820F911DA11D08
:1006C000B11DBC01CD0142E0660F771F881F991F45
:1006D0004A95D1F708958F929F92AF92BF92CF9291
:1006E000DF92EF92FF926B017C01D0DF4B015C0146
:1006F000C114D104E104F104E9F0C8DFDC01CB014D
:1007000088199909AA09BB09883E9340A105B1053A
:1007100078F321E0C21AD108E108F10888EE880ECA
:1007200083E0981EA11CB11CC114D104E104F104A2
:1007300021F7DECFFF90EF90DF90CF90BF90AF908A
:100740009F908F9008950AD46115710579F0FB018F
:1007500001900020E9F73197AF01461B570BDC01F0
:10076000ED91FC910280F381E02D199480E090E0FE
:1007700008954F925F926F927F92EF92FF920F9344
:100780001F93CF93DF93CDB7DEB7A1970FB6F89441
:10079000DEBF0FBECDBF7C01FA01CB0119A2223012
:1007A00008F42AE08E010F5D1F4F422E512C612C60
:1007B000712CBF01A3019201EED4F901CA010150CD
:1007C00011096A3014F4605D01C0695CD8016C9352
:1007D000232B242B252B69F7B801C701B5DFA19680
:1007E0000FB6F894DEBF0FBECDBFDF91CF911F9142
:1007F0000F91FF90EF907F906F905F904F900895D2
:100800001F920F920FB60F9211240BB60F922F93D7
:100810003F934F935F936F937F938F939F93AF9388
:10082000BF93EF93FF9383E492E0B8DDFF91EF91E4
:10083000BF91AF919F918F917F916F915F914F91F8
:100840003F912F910F900BBE0F900FBE0F901F90F6
:1008500018951F920F920FB60F9211240BB60F929C
:100860002F938F939F93EF93FF93E0915302F09117
:1008700054028081E0915902F0915A0282FD12C027
:10088000908180915C028F5F8F7320915D0282174F
:1008900051F0E0915C02F0E0ED5BFD4F958F8093AD
:1008A0005C0201C08081FF91EF919F918F912F9108
:1008B0000F900BBE0F900FBE0F901F9018951F92B8
:1008C0000F920FB60F9211242F933F938F939F9304
:1008D000AF93BF938091370290913802A091390273
:1008E000B0913A023091320223E0230F2D3720F4E9
:1008F0000196A11DB11D05C026E8230F0296A11D7A
:10090000B11D209332028093370290933802A09356
:100910003902B0933A028091330290913402A0914F
:100920003502B09136020196A11DB11D80933302AC
:1009300090933402A0933502B0933602BF91AF91E9
:100940009F918F913F912F910F900FBE0F901F900D
:100950001895CF92DF92EF92FF920F931F93E82F9B
:10096000F92F05C0015011092109310961F1908168
:1009700096239417B9F305C00150110921093109D3
:1009800011F1908196239413F7CFC12CD12CE12C37
:10099000F12C0AC08FEFC81AD80AE80AF80A0C1519
:1009A0001D052E053F0579F080818623841791F37C
:1009B0006C2D7D2D8E2D9F2D1F910F91FF90EF900F
:1009C000DF90CF90089560E070E080E090E01F91AC
:1009D0000F91FF90EF90DF90CF900895E3E4F2E065
:1009E0001382128288EE93E0A0E0B0E084839583C6
:1009F000A683B78384E092E09183808385EC90E0C6
:100A00009587848784EC90E09787868780EC90E0D8
:100A1000918B808B81EC90E0938B828B82EC90E0C9
:100A2000958B848B86EC90E0978B868B118E128E43
:100A3000138E148EE0EEF2E0168217821086118675
:100A4000128613861486158616861786108A118AD2
:100A5000128A138A148A158A0895789484B582605C
:100A600084BD84B5816084BD85B5826085BD85B552
:100A7000816085BD80916E00816080936E001092D0
:100A8000810080918100826080938100809181004B
:100A900081608093810080918000816080938000DC
:100AA0008091B10084608093B1008091B00081603A
:100AB0008093B0008091910082608093910080913A
:100AC000910081608093910080919000816080937B
:100AD00090008091A10082608093A1008091A1008C
:100AE00081608093A1008091A00081608093A0002C
:100AF0008091210182608093210180912101816098
:100B00008093210180912001816080932001809158
:100B10007A00846080937A0080917A00826080936A
:100B20007A0080917A00816080937A0080917A00C7
:100B3000806880937A001092C10010922403109272
:100B4000250310922603109227031092E2021092BE
:100B5000E3021092E4021092E50260ED77E080E09B
:100B600090E0B9DD83E492E0909323038093220325
:100B70008BDB2FB7F8948091370290913802A091C7
:100B80003902B0913A022FBF8093E2029093E302C0
:100B9000A093E402B093E50260E172E08091220349
:100BA00090912303D1DD6AE070E080E090E093DD76
:100BB00081E08093F60268DB61E084E32BDD60E096
:100BC00085E328DD61E08DE025DD93E0292E312CE1
:100BD000C3E2D0E060E084E3A1DCC1010197F1F75A
:100BE00061E084E39BDCCE010197F1F760E084E3F0
:100BF00095DCE7E1F2E06491E1EDF1E08491E82F2A
:100C0000F0E0EE0FFF1FEE57FE4F8591949100E448
:100C100012E42FE030E0462F9CDE6115710581055E
:100C2000910549F0DC01CB010196A11DB11DBC016C
:100C3000CD019F7003C060E070E0CB0197D160935D
:100C40003F027093400280934102909342022CE550
:100C500036EC4DE05DE3EBD120E030E040E05FE3D7
:100C6000E6D12DEC3CEC4CE05FE3DFD06B017C0186
:100C70004B015C0160933B0270933C0280933D0208
:100C800090933E0220E030E048E453E45FD187FFD8
:100C900008C020E030E0A901C701B60163D11816F1
:100CA00064F062E272E083E492E04EDD6FE172E0B4
:100CB00083E492E049DD61E0A7C0A7019601C70186
:100CC000B60148D1882319F065E272E018C0260108
:100CD0003701E89477F82FEF3FEF4FE75FE7C30165
:100CE000B20138D181110FC02FEF3FEF4FE75FE71F
:100CF000C301B20137D1181634F469E272E083E41B
:100D000092E022DD7BC02FEF3FEF4FE75FE4C701AA
:100D1000B6011CD118161CF46DE272E0F0CF2FEF73
:100D20003FEF4FE75FECC701B6011CD187FDF4CF61
:100D300020E030E0A901C701B60114D187FF11C03E
:100D4000E0914302F09144020190F081E02D6DE2C8
:100D500083E492E0199546015701B7FAB094B7F8C9
:100D6000B0942AE037ED43EA5BE3C501B4015ED0FD
:100D70004B015C01BFD06B017C01F8D09B01AC0141
:100D8000C501B40152D04B015C012AE0B701A601B4
:100D900083E492E0EEDCE0914302F09144020190A2
:100DA000F081E02D6EE283E492E0199520E030E0DE
:100DB00040E251E4C501B4013AD16B017C019AD003
:100DC0004B01A12CB12C2AE0B501A40183E492E0EF
:100DD000D0DCC501B401CAD09B01AC01C701B6018A
:100DE00024D020E030E040E251E421D183D0AB01B7
:100DF00060E070E02AE083E492E0BBDC6FE172E047
:100E000083E492E0A1DC60E08DE088DB68EE73E0D3
:100E100080E090E060DC4ADBDDCEEE0FFF1F881F34
:100E20008BBF0790F691E02D19945058BB27AA2745
:100E30000ED077C168D130F06DD120F031F49F3FF2
:100E400011F41EF45DC10EF4E095E7FB53C1E92FE8
:100E500079D180F3BA17620773078407950718F0F2
:100E600071F49EF591C10EF4E0950B2EBA2FA02DD2
:100E70000B01B90190010C01CA01A0011124FF2747
:100E8000591B99F0593F50F4503E68F11A16F04042
:100E9000A22F232F342F4427585FF3CF4695379541
:100EA0002795A795F0405395C9F77EF41F16BA0B06
:100EB000620B730B840BBAF09150A1F0FF0FBB1FB4
:100EC000661F771F881FC2F70EC0BA0F621F731FFD
:100ED000841F48F4879577956795B795F7959E3F5A
:100EE00008F0B3CF9395880F08F09927EE0F9795E8
:100EF000879508952FD188F09F5790F0B92F9927A3
:100F0000B751A0F0D1F0660F771F881F991F1AF014
:100F1000BA95C9F712C0B13081F036D1B1E0089569
:100F200033C1672F782F8827B85F39F0B93FCCF3EA
:100F3000869577956795B395D9F73EF4909580950A
:100F4000709561957F4F8F4F9F4F08954CD008F457
:100F50008FEF089548D0880B990B089581E090E0B9
:100F6000F8943BC140D008F481E00895E89409C0AA
:100F700097FB3EF490958095709561957F4F8F4FCC
:100F80009F4F9923A9F0F92F96E9BB279395F695E2
:100F9000879577956795B795F111F8CFFAF4BB0F60
:100FA00011F460FF1BC06F5F7F4F8F4F9F4F16C0C4
:100FB000882311F096E911C0772321F09EE8872F4E
:100FC000762F05C0662371F096E8862F70E060E00A
:100FD0002AF09A95660F771F881FDAF7880F969583
:100FE000879597F90895990F0008550FAA0BE0E827
:100FF000FEEF16161706E807F907C0F012161306DB
:10100000E407F50798F0621B730B840B950B39F41A
:101010000A2661F0232B242B252B21F408950A2680
:1010200009F4A140A6958FEF811D811D08950BD075
:1010300078C069D028F06ED018F0952309F05AC016
:101040005FC01124A2C07ED0A0F3959FD1F3950F6D
:1010500050E0551F629FF001729FBB27F00DB11D3C
:10106000639FAA27F00DB11DAA1F649F6627B00DCC
:10107000A11D661F829F2227B00DA11D621F739FB5
:10108000B00DA11D621F839FA00D611D221F749FC3
:101090003327A00D611D231F849F600D211D822F0A
:1010A000762F6A2F11249F5750408AF0E1F0882351
:1010B0004AF0EE0FFF1FBB1F661F771F881F91505E
:1010C0005040A9F79E3F510570F014C05EC05F3FCD
:1010D000ECF3983EDCF3869577956795B795F79591
:1010E000E7959F5FC1F7FE2B880F911D9695879519
:1010F00097F9089597F99F6780E870E060E0089598
:101100009FEF80EC089500240A941616170618061F
:101110000906089500240A941216130614060506FB
:101120000895092E0394000C11F4882352F0BB0F8C
:1011300040F4BF2B11F460FF04C06F5F7F4F8F4FEF
:101140009F4F089557FD9058440F551F59F05F3F2A
:1011500071F04795880F97FB991F61F09F3F79F0D9
:1011600087950895121613061406551FF2CF46955B
:10117000F1DF08C0161617061806991FF1CF8695DD
:101180007105610508940895E894BB2766277727C1
:10119000CB0197F90895A1E21A2EAA1BBB1BFD01F2
:1011A0000DC0AA1FBB1FEE1FFF1FA217B307E40746
:1011B000F50720F0A21BB30BE40BF50B661F771F9E
:1011C000881F991F1A9469F760957095809590957E
:0E11D0009B01AC01BD01CF010895F894FFCF43
:1011DE0000000000EF016C01B9019701AB0135026F
:1011EE00564D4450565F317C315F564D4450560D2E
:1011FE000A002D31006E616E00696E66006F7666B4
:02120E000000DE
:00000001FF
