:100000000C94E2000C940A010C940A010C940A016D
:100010000C940A010C940A010C940A010C940A0134
:100020000C940A010C940A010C940A010C940A0124
:100030000C940A010C940A010C940A010C940A0114
:100040000C9435030C940A010C949E020C947802D3
:100050000C940A010C940A010C940A010C940A01F4
:100060000C940A010C940A01005EBCE2613FDD833E
:10007000C29C7E20A3FD1F419DC3217FFCA2401E88
:100080005F01E3BD3E6082DC237D9FC1421CFEA078
:10009000E1BF5D0380DE3C62BEE0025CDF81633D68
:1000A0007C22C09E1D43A1FF4618FAA427799BC558
:1000B00084DA3866E5BB5907DB856739BAE4065848
:1000C0001947A5FB7826C49A653BD987045AB8E638
:1000D000A7F91B45C6987A24F8A6441A99C7257B28
:1000E0003A6486D85B05E7B98CD2306EEDB3510F18
:1000F0004E10F2AC2F7193CD114FADF3702ECC9208
:10010000D38D6F31B2EC0E50AFF1134DCE90722CF7
:100110006D33D18F0C52B0EE326C8ED0530DEFB1E7
:10012000F0AE4C1291CF2D73CA947628ABF51749D7
:100130000856B4EA6937D58B5709EBB536688AD4C7
:1001400095CB2977F4AA4816E9B7550B88D6346AB7
:100150002B7597C94A14F6A8742AC896154BA9F7A7
:10016000B6E80A54D7896B35000000002400270048
:100170002A0000000000250028002B0000000008D5
:10018000000201000003040700000000000000005E
:1001900000000000230026002900040404040404D5
:1001A0000404020202020202030303030303010226
:1001B00004081020408001020408102001020408F5
:1001C0001020E30911241FBECFEFD8E0DEBFCDBF62
:1001D00011E0A0E0B1E0E0E8F9E102C005900D9285
:1001E000AE35B107D9F722E0AEE5B1E001C01D920E
:1001F000A037B207E1F710E0C2EED0E004C02197CB
:10020000FE010E94C00AC13ED107C9F70E947B07C8
:100210000C94BE0C0C940000CF92DF92EF92FF92F0
:100220000F931F93CF93DF936C017A018B01C0E092
:10023000D0E0CE15DF0589F0D8016D918D01D60192
:10024000ED91FC910190F081E02DC6010995892B7B
:1002500011F47E0102C02196ECCFC701DF91CF914E
:100260001F910F91FF90EF90DF90CF900895FC01C8
:10027000918D828D981761F0828DDF01A80FB11DDD
:100280005D968C91928D9F5F9F73928F90E0089501
:100290008FEF9FEF0895FC01918D828D981731F0BB
:1002A000828DE80FF11D858D90E008958FEF9FEF0F
:1002B0000895FC01918D228D892F90E0805C9F4FE5
:1002C000821B91098F739927089587E691E00E9418
:1002D000590121E0892B09F420E0822F0895FC01C7
:1002E000848DDF01A80FB11DA35ABF4F2C91848DBF
:1002F00090E001968F739927848FA689B7892C93F4
:10030000A089B1898C9180648C93938D848D98138E
:1003100006C00288F389E02D80818F7D8083089557
:10032000EF92FF920F931F93CF93DF93EC0181E045
:10033000888F9B8D8C8D981305C0E889F989808101
:1003400085FD24C0F62E0B8D10E00F5F1F4F0F733D
:100350001127E02E8C8DE8120CC00FB607FCFACFE7
:10036000E889F989808185FFF5CFCE010E946F0170
:10037000F1CF8B8DFE01E80FF11DE35AFF4FF082A4
:100380000B8FEA89FB898081806207C0EE89FF8933
:100390006083E889F98980818064808381E090E0CE
:1003A000DF91CF911F910F91FF90EF900895CF9320
:1003B000DF93EC01888D8823C9F0EA89FB8980816D
:1003C00085FD05C0A889B9898C9186FD0FC00FB63F
:1003D00007FCF5CF808185FFF2CFA889B9898C9180
:1003E00085FFEDCFCE010E946F01E7CFDF91CF9166
:1003F000089580E090E0892B29F00E946501811129
:100400000C94000008953FB7F89480915F0190919B
:100410006001A0916101B091620126B5A89B05C061
:100420002F3F19F00196A11DB11D3FBFBA2FA92F73
:10043000982F8827820F911DA11DB11DBC01CD01F0
:1004400042E0660F771F881F991F4A95D1F70895DC
:100450008F929F92AF92BF92CF92DF92EF92FF92D4
:100460006B017C010E9403024B015C01C114D104A9
:10047000E104F104F1F00E940302DC01CB018819D0
:100480009909AA09BB09883E9340A105B10570F3FB
:1004900021E0C21AD108E108F10888EE880E83E055
:1004A000981EA11CB11CC114D104E104F10419F778
:1004B000DDCFFF90EF90DF90CF90BF90AF909F90F7
:1004C0008F90089508956115710579F0FB010190F1
:1004D0000020E9F73197AF01461B570BDC01ED9186
:1004E000FC910280F381E02D099480E090E0089572
:1004F0001F920F920FB60F9211242F933F934F9399
:100500005F936F937F938F939F93AF93BF93EF937B
:10051000FF9387E691E00E946F01FF91EF91BF91F9
:10052000AF919F918F917F916F915F914F913F918B
:100530002F910F900FBE0F901F9018951F920F9242
:100540000FB60F9211242F938F939F93EF93FF93E6
:10055000E0917701F09178018081E0917D01F09147
:100560007E0182FD12C09081809180018F5F8F7328
:1005700020918101821751F0E0918001F0E0E9596A
:10058000FE4F958F8093800101C08081FF91EF9194
:100590009F918F912F910F900FBE0F901F901895E4
:1005A000833081F028F4813099F08230A1F00895F1
:1005B0008730A9F08830B9F08430D1F48091800080
:1005C0008F7D03C0809180008F7780938000089595
:1005D00084B58F7702C084B58F7D84BD08958091E6
:1005E000B0008F7703C08091B0008F7D8093B00002
:1005F0000895CF93DF9390E0FC01E255FE4F2491E4
:10060000FC01E656FE4F8491882361F190E0880F4B
:10061000991FFC01E859FE4FC591D491FC01EE5899
:10062000FE4FA591B491611109C09FB7F8948881DC
:10063000209582238883EC912E230BC0623061F4D5
:100640009FB7F8943881822F809583238883EC911B
:100650002E2B2C939FBF06C08FB7F894E8812E2BCA
:1006600028838FBFDF91CF9108951F920F920FB60D
:100670000F9211242F933F938F939F93AF93BF9328
:100680008091630190916401A0916501B091660130
:1006900030915E0123E0230F2D3720F40196A11D38
:1006A000B11D05C026E8230F0296A11DB11D2093A0
:1006B0005E018093630190936401A0936501B09300
:1006C000660180915F0190916001A0916101B091FC
:1006D00062010196A11DB11D80935F01909360019D
:1006E000A0936101B0936201BF91AF919F918F91EF
:1006F0003F912F910F900FBE0F901F901895DC0126
:10070000E0E0615038F08D91E827F0E0E859FF4FC4
:10071000E491F7CF8E2F0895FC0190810180F28142
:10072000E02DF8948181892B81832281892F809506
:1007300028232283A7E0B0E01197F1F721818223DB
:100740008183A3E2B0E01197F1F780817894EFEC18
:10075000F0E03197F1F7982381E009F480E0089503
:10076000FC0190810180F281E02D892F809560FF4E
:1007700012C0F8942281822382838181892B818314
:10078000A3E2B0E01197F1F78281982B92837894DD
:1007900087ED90E011C0F8942281822382838181C9
:1007A000892B8183AFEFB0E01197F1F78281982B0D
:1007B000928378948FE090E00197F1F70895CF92BB
:1007C000DF92EF92FF920F931F93CF93DF931F92CD
:1007D000CDB7DEB76C01E62E08E010E0FF24F394FD
:1007E00061E08F2D8E2109F460E0C60149830E94EB
:1007F000B003FF0C0150110949810115110581F762
:10080000411115C0F894D6011196ED91FC91129703
:1008100091818C918095892381831196ED91FC9132
:10082000129792818C9180958923828378940F907E
:10083000DF91CF911F910F91FF90EF90DF90CF90BC
:100840000895CF92DF92EF92FF920F931F93CF9371
:10085000DF931F92CDB7DEB78C01F62E40E065E541
:1008600079830E94DF03CF2C7981D72E760188E02F
:10087000E80EF11CF60161916F0140E0C8010E9491
:10088000DF03CE14DF04B1F70F90DF91CF911F91FA
:100890000F91FF90EF90DF90CF900895FC01908131
:1008A0000180F281E02DF8948181292F2095822307
:1008B000818378948DE743E050E0815021F1DA01A3
:1008C0001197F1F730813923C1F3F89482818223A3
:1008D00082838181892B81837894ABE7B7E011977C
:1008E000F1F7F894818128232183A3E1B1E01197E6
:1008F000F1F78081982381E009F080E07894E3E6C5
:10090000F6E03197F1F70895CF93DF93282F30E089
:10091000F901E458FE4F8491F901E255FE4FD4915C
:10092000F901E656FE4FC491CC2399F081110E9443
:10093000D002EC2FF0E0EE0FFF1FEE58FE4FA59116
:10094000B4918FB7F8949C91ED2FE095E923EC9347
:100950008FBFDF91CF9108950E94730BE7E6F1E01E
:10096000A089B18982E08C93A485B5851C92A68567
:10097000B7858FEC8C93108EA489B58986E08C9313
:10098000A289B3898C9180618C93A289B3898C915F
:1009900088608C93A289B3898C9180688C9302883B
:1009A000F389E02D80818F7D80830895AF92BF927F
:1009B000CF92DF92EF92FF920F931F93CF93DF932B
:1009C0001F92CDB7DEB75C01D62EE72EFC018585E0
:1009D000811105C0C5010E944E04811106C0F501B8
:1009E00013861586148680E065C040E060EFC5017F
:1009F0000E94DF0301E0F12CC12C11E0C5010E942F
:100A00008C03682FC50169830E948C036981613062
:100A100019F48130B9F433C04F2D50E068131BC076
:100A2000F5018385181730F4E40FF51F83818023C7
:100A300049F402C0181731F060E0193058F4F5019C
:100A4000148708C0F501EF0DF11D8381802B83838E
:100A500061E009C0C12EF501E40FF51F9381802FDD
:100A6000809589238383C5010E94B0031F5F000F17
:100A700011F4F39401E0F7E0FF1508F0BFCF113453
:100A800008F4ADCFF501C386C11002C081E08587AF
:100A9000F5018381882309F4A2CFD5011396ED2DAA
:100AA000FE2D9501255F3F4F8D918193A217B307CE
:100AB000D9F781E00F90DF91CF911F910F91FF90B7
:100AC000EF90DF90CF90BF90AF900895AF92BF921C
:100AD000CF92DF92EF92FF920F931F93CF93DF930A
:100AE000EC018B0180915402909155020E944E04BA
:100AF0008823A1F1BE0180915402909155020E9479
:100B0000210440E06EEB80915402909155020E94C6
:100B1000DF03E801680189E0C80ED11CA0905402EF
:100B2000B090550288E0E82EF12C01E010E0C501FC
:100B30000E948C038111102B000F81E0E81AF1084C
:100B4000B1F71993CC15DD0549F7809154029091C6
:100B500055020E944E0491E0813009F090E0892F07
:100B6000DF91CF911F910F91FF90EF90DF90CF9089
:100B7000BF90AF900895CF93DF93CDB7DEB729979D
:100B80000FB6F894DEBF0FBECDBFFC01208120312F
:100B900019F1BE016F5F7F4F0E946605882379F0CF
:100BA00068E0CE0101960E947F039985891307C0F2
:100BB00008C0803458F08F3569F08F3769F080E0D5
:100BC0000CC08D818F33A9F78AE007C08F31B9F748
:100BD00089E003C08BE001C08CE029960FB6F89441
:100BE000DEBF0FBECDBFDF91CF9108950F931F934E
:100BF000CF93DF930CE412E061E0F80181810E9461
:100C0000F902C3ECD0E0CE010197F1F760E0F80102
:100C100080810E94F902CE010197F1F760E0F801AE
:100C200081810E94F9022197F1F7DF91CF911F9105
:100C30000F910895EF92FF920F931F93CF93DF933D
:100C4000082F18E093ECE92EF12C61E080914C0222
:100C50000E94F902C7010197F1F700FF02C060E0AE
:100C600001C061E080914D020E94F902C3ECD0E026
:100C7000C7010197F1F760E080914C020E94F902F0
:100C8000C7010197F1F706951150F9F661E08091DF
:100C90004C020E94F90260E080914D020E94F9022C
:100CA000CE010197F1F760E080914C020E94F902B9
:100CB0002197F1F720914D0230E0F901E458FE4F01
:100CC0008491F901E255FE4FD491F901E656FE4FA9
:100CD000C491CC23A1F081110E94D002EC2FF0E04E
:100CE000EE0FFF1FE057FE4FA591B491EC91ED235D
:100CF00091E080E009F490E0C92FD82F02C0C0E055
:100D0000D0E0209729F461E080914D020E94F90221
:100D100003EC10E0C8010197F1F761E080914C020B
:100D20000E94F902C8010197F1F78C2F8170DF91C1
:100D3000CF911F910F91FF90EF90089561E0809106
:100D40004D020E94F90283EC90E00197F1F70895BB
:100D5000CF93DF93CDB7DEB761970FB6F894DEBFC0
:100D60000FBECDBFE0915402F09155021386158657
:100D70001486DF011B96CF0103961E92A817B907B0
:100D8000E1F7BE01665F7F4FCF010E94D604882342
:100D900041F067E0CE010A960E947F039989891786
:100DA00029F060E070E08EEF92EC53C0BE016F5FFF
:100DB0007F4FCE010A960E946605882309F446C03B
:100DC00068E0CE0101960E947F03998589133EC099
:100DD000698188E0689FB00111248A81282F30E062
:100DE000322F2227330F330F330F262B372B8A85D1
:100DF000803151F5688570E08F81AB01481B510946
:100E0000CA019695982F8827979587950E94980AEA
:100E100060517109207F53E0220F331F5A95E1F78B
:100E2000620F731F613854EE75070CF4BACF072EAA
:100E3000000C880B990B0E947F0B20E030E040E013
:100E40005CE30E94DE0B05C0B901ECCF60E874EEF4
:100E5000E9CF61960FB6F894DEBF0FBECDBFDF912C
:100E6000CF9108954F925F926F927F92EF92FF928F
:100E70000F931F93CF93DF93CDB7DEB7A1970FB634
:100E8000F894DEBF0FBECDBF7C01FA01CB0119A2E1
:100E9000223008F42AE08E010F5D1F4F422E512CA4
:100EA000612C712CBF01A30192010E949C0CF901DD
:100EB000CA01015011096A3014F4605D01C0695C17
:100EC000D8016C93232B242B252B61F7B801C70184
:100ED0000E946302A1960FB6F894DEBF0FBECDBF8D
:100EE000DF91CF911F910F91FF90EF907F906F90C6
:100EF0005F904F900895CF93DF93CDB7DEB76197A2
:100F00000FB6F894DEBF0FBECDBF789484B5826073
:100F100084BD84B5816084BD85B5826085BD85B59D
:100F2000816085BD80916E00816080936E0010921B
:100F30008100809181008260809381008091810096
:100F40008160809381008091800081608093800027
:100F50008091B10084608093B1008091B000816085
:100F60008093B00080917A00846080937A008091B1
:100F70007A00826080937A0080917A008160809309
:100F80007A0080917A00806880937A001092C10084
:100F9000109248021092490210924A0210924B029B
:100FA0001092060210920702109208021092090293
:100FB00060ED77E080E090E00E94280287E691E013
:100FC00090934702809346020E94AE042FB7F89494
:100FD0008091630190916401A0916501B0916601D7
:100FE0002FBF8093060290930702A0930802B0934C
:100FF00009026EE271E080914602909147020E94E0
:1010000063026AE070E080E090E00E94280281E0E4
:1010100080931A028FE080934E020E94AE04E0910A
:101020005402F0915502138615861486DF011B9633
:1010300033961E92AE17BF07E1F71092530211E0EC
:10104000BE01665F7F4F80915402909155020E94CD
:10105000D604882309F4E7C067E0CE010A960E940F
:101060007F0399898913ECCF80914F02811127C0AA
:1010700080915402909155020E944E04BE01665F19
:101080007F4F80915402909155020E94210440E0CC
:1010900064EB80915402909155020E94DF0380918D
:1010A0005402909155020E948C03082F80915402A3
:1010B000909155020E944E04002309F481C1BE01A3
:1010C0006F5F7F4FCE010A960E9466050091500225
:1010D000CE010A960E94BB05801718F48091500239
:1010E00004C0CE010A960E94BB05809350028091F5
:1010F00053028F5F80935302A3CFE0915002E950D7
:10110000E33008F0ADC0F0E0EE0FFF1FE050FF4FFE
:1011100060817181072E000C880B990B0E942802B8
:1011200060E471E087E691E00E9463020E94A806F5
:101130006B017C019B01AC010E946E0B882309F4BA
:1011400092C061E571E087E691E00E9463026DE381
:1011500071E087E691E00E9463020E94A80620E009
:1011600030E048EC52E40E94DE0B0E94330B9B01FE
:101170000EE111E0CE0101967C0183EEB82EE1E094
:1011800040E0D801DE90CE908D01C901B6010E94E9
:10119000980A6115710509F40BC1E62FEF70F0E0B4
:1011A000EA5FFE4F80816C9DF0016D9DF00D7C9D8E
:1011B000F00D11242E1B3F0BE0E09B2D9078892B26
:1011C000BB0CD7018D937D014F5F4430D1F60E9457
:1011D0009E0680E40E941A060E94F6050E949E0662
:1011E00080EC0E941A0689810E941A068A810E9458
:1011F0001A068B810E941A068C810E941A060E9490
:10120000F6050E949E0680914E028F7080580E94C3
:101210001A060E94F60568EE73E080E090E00E94F6
:1012200028020E94F90180915402909155020E9477
:101230004E0440E06CEC80915402909155020E9463
:10124000DF0340914F0264E4809154029091550273
:101250000E94DF0380915102882309F461CF4DCFB2
:101260006EEE72E057CF46015701E894B7F82FEFC2
:101270003FEF4FE75FE7C501B4010E946E0B81119C
:101280000DC02FEF3FEF4FE75FE7C501B4010E94AC
:10129000780B18161CF465E571E055CF2FEF3FEF82
:1012A0004FE75FE4C701B6010E94690B18161CF4F2
:1012B00069E571E048CF2FEF3FEF4FE75FECC701E3
:1012C000B6010E94780B87FDF3CF20E030E0A90142
:1012D000C701B6010E94780B87FF0FC0E09167013C
:1012E000F09168010190F081E02D6DE287E691E0D8
:1012F0000995F7FAF094F7F8F0942AE037ED43EA0D
:101300005BE3C701B6010E94C70A4B015C010E9462
:101310003A0B6B017C010E947D0B9B01AC01C50166
:10132000B4010E94C60A4B015C012AE0B701A60184
:1013300087E691E00E943207E0916701F091680131
:101340000190F081E02D6EE287E691E0099520E0C2
:1013500030E040E251E4C501B4010E94DE0B4B01D4
:101360005C010E943A0B6B01E12CF12C2AE0B701E1
:10137000A60187E691E00E943207C701B6010E94EC
:101380007D0B9B01AC01C501B4010E94C60A20E09F
:1013900030E040E251E40E94DE0B0E943A0BAB01C8
:1013A00060E070E02AE087E691E00E943207CFCE4D
:1013B000EE2311F0433011F48FE3FFCE80E0FDCE39
:1013C00010934F027CCE10926A011092690188EE50
:1013D00093E0A0E0B0E080936B0190936C01A09348
:1013E0006D01B0936E0182E291E090936801809369
:1013F000670185EC90E0909374018093730184EC15
:1014000090E0909376018093750180EC90E090934A
:1014100078018093770181EC90E090937A0180933A
:10142000790182EC90E090937C0180937B0186ECC3
:1014300090E090937E0180937D0110928001109244
:101440008101109282011092830110920A0210927F
:101450000B0210920C0210920D0210920E021092CA
:101460000F021092100210921102109212021092AA
:10147000130210921402109215021092160210928A
:101480001702109218021092190260E089E00E947F
:10149000F902E7EBF1E0E491E0936202E3EAF1E0C4
:1014A000E491F0E0EE0FFF1FE057FE4F859194911D
:1014B000909364028093630210926D0210926F0207
:1014C00010926E02EDE6F2E0129282E0E536F80745
:1014D000D9F782E692E0909361028093600282E6FF
:1014E00092E090935502809354021092530210920E
:1014F0004F0289E08093500281E0809351028093F3
:10150000520283E080934C0282E080934D0260E0BF
:1015100083E00E94F90260E080914D020E94F9028E
:1015200080914C020E94840480914D020C948404AA
:1015300097FB072E16F4009407D077FD09D00E9480
:10154000AC0A07FC05D03EF4909581959F4F089515
:10155000709561957F4F0895AA1BBB1B51E107C091
:10156000AA1FBB1FA617B70710F0A61BB70B881F33
:10157000991F5A95A9F780959095BC01CD010895C2
:10158000EE0FFF1F0590F491E02D09945058BB27F2
:10159000AA270E94DE0A0C94620C0E94540C38F0B8
:1015A0000E945B0C20F039F49F3F19F426F40C9450
:1015B000510C0EF4E095E7FB0C944B0CE92F0E94C4
:1015C000730C58F3BA17620773078407950720F066
:1015D00079F4A6F50C94950C0EF4E0950B2EBA2F29
:1015E000A02D0B01B90190010C01CA01A001112429
:1015F000FF27591B99F0593F50F4503E68F11A16D5
:10160000F040A22F232F342F4427585FF3CF469565
:1016100037952795A795F0405395C9F77EF41F1687
:10162000BA0B620B730B840BBAF09150A1F0FF0F51
:10163000BB1F661F771F881FC2F70EC0BA0F621F3D
:10164000731F841F48F4879577956795B795F7952D
:101650009E3F08F0B0CF9395880F08F09927EE0FC2
:101660009795879508950E943A0B6894B1110C9450
:10167000960C08950E947B0C88F09F5798F0B92F24
:101680009927B751B0F0E1F0660F771F881F991FB7
:101690001AF0BA95C9F714C0B13091F00E94950CB8
:1016A000B1E008950C94950C672F782F8827B85FC8
:1016B00039F0B93FCCF3869577956795B395D9F70F
:1016C0003EF490958095709561957F4F8F4F9F4F19
:1016D00008950E94BA0B08F48FEF08950E94BA0B88
:1016E000880B990B089581E090E0F8940C94BE0C5F
:1016F0000E94BA0B08F481E00895E89409C097FBB2
:101700003EF490958095709561957F4F8F4F9F4FD8
:101710009923A9F0F92F96E9BB279395F69587951C
:1017200077956795B795F111F8CFFAF4BB0F11F4DF
:1017300060FF1BC06F5F7F4F8F4F9F4F16C0882386
:1017400011F096E911C0772321F09EE8872F762FBC
:1017500005C0662371F096E8862F70E060E02AF0FD
:101760009A95660F771F881FDAF7880F96958795E9
:1017700097F90895990F0008550FAA0BE0E8FEEFBE
:1017800016161706E807F907C0F012161306E40745
:10179000F50798F0621B730B840B950B39F40A263E
:1017A00061F0232B242B252B21F408950A2609F41C
:1017B000A140A6958FEF811D811D08950E94F10B18
:1017C0000C94620C0E94540C38F00E945B0C20F0C8
:1017D000952311F00C944B0C0C94510C11240C9487
:1017E000960C0E94730C70F3959FC1F3950F50E017
:1017F000551F629FF001729FBB27F00DB11D639FC3
:10180000AA27F00DB11DAA1F649F6627B00DA11D68
:10181000661F829F2227B00DA11D621F739FB00D0E
:10182000A11D621F839FA00D611D221F749F33277E
:10183000A00D611D231F849F600D211D822F762F17
:101840006A2F11249F5750409AF0F1F088234AF0F4
:10185000EE0FFF1FBB1F661F771F881F9150504060
:10186000A9F79E3F510580F00C944B0C0C94960CFC
:101870005F3FE4F3983ED4F3869577956795B795E7
:10188000F795E7959F5FC1F7FE2B880F911D969501
:10189000879597F9089597F99F6780E870E060E071
:1018A00008959FEF80EC089500240A9416161706F9
:1018B00018060906089500240A9412161306140641
:1018C00005060895092E0394000C11F4882352F0A4
:1018D000BB0F40F4BF2B11F460FF04C06F5F7F4F5C
:1018E0008F4F9F4F089557FD9058440F551F59F043
:1018F0005F3F71F04795880F97FB991F61F09F3FFD
:1019000079F087950895121613061406551FF2CF25
:101910004695F1DF08C0161617061806991FF1CF75
:1019200086957105610508940895E894BB2766279C
:101930007727CB0197F90895A1E21A2EAA1BBB1BAA
:10194000FD010DC0AA1FBB1FEE1FFF1FA217B3078B
:10195000E407F50720F0A21BB30BE40BF50B661FA1
:10196000771F881F991F1A9469F760957095809565
:1019700090959B01AC01BD01CF010895F894FFCF74
:101980005E00BC0077013F065B4F666D7D077F6F91
:10199000777C395E797101000A006400E803000079
:1019A000000090010C01590137014B01D701564D40
:1019B0004450565F317C315F564D4450560D0A00FD
:1019C00054656D70657261747572652069733A2033
:0E19D000006E616E00696E66006F7666000044
:00000001FF
